:100000000A128A111028FF34FE00030EF6000408BD
:10001000F7000A08F8007F08F9000A128A11BB2CC1
:100020000A128A111328831603130A128A11032055
:100030000A128A11E900831790308400B0300A1246
:100040008A11F8270A128A118313C8308400E93014
:100050000A128A11F8270A128A1183120313EC017B
:10006000ED01EE01EF01F001F101F201F301F40104
:10007000F50183010A128A11122A831203132F0831
:1000800084008313000884000A128A1100270A12D0
:100090008A11253A031D4D284E2810292F08840067
:1000A0000130800783160313E001E1010030E40012
:1000B000FF30E200FF30E300831203132F088400B7
:1000C0000008B400340884000A128A1100270A12BA
:1000D0008A11643A03196D286E287A28340884003E
:1000E0000A128A1100270A128A11693A031D792817
:1000F0007A280829300884000008FF0002308007B1
:100100007F0884000008B500840A0008B6002F08A4
:1001100084003408013E80002030B900B61B9128CD
:100120009328013094280030B3000130B902390817
:10013000903E84000A30A0000030A1003608A300E1
:100140003508A2000A128A115F270A128A11831247
:1001500003132108A7002008A6000A128A159A2472
:100160000A128A11831203132608303E8317800077
:100170000A30A0000030A1003608A3003508A20014
:100180000A128A1163260A128A11831203132108A4
:10019000B6002008B500350836040319D028D12848
:1001A000D6283908031DD528D628952839080319DB
:1001B000DA28DB28012933080319DF28E028012980
:1001C0000130B9023908903E84002D308317800039
:1001D00001293908903E840083170008B100B2015C
:1001E0003108A0003208A1002D08A2002E08A300AB
:1001F0000A128A11EC220A128A11013083120313A7
:10020000B90720303906031D06290729E9282929BD
:10021000831203132F0884000130831380072929D8
:100220002F088400000884000A128A1100270A128D
:100230008A11B100B2013108A0003208A1002D08D6
:10024000A2002E08A3000A128A11EC220A128A11B7
:100250000829080083120313B901BA01E429051122
:100260000514851085168511051200306D020F30BA
:1002700003196C02031C3D293E294129B101B20139
:100280004A290F30B0006C083002B1006D09031824
:10029000013EB2003108B9003908033EBA0000300F
:1002A0006D020F3003196C02031C57295829F229DB
:1002B000EC01ED010130F500F2290511051085145E
:1002C00085168511051200306D02033003196C028A
:1002D000031C6B296C296F29B301B4017829033001
:1002E000B0006C083002B3006D090318013EB40081
:1002F0003308B9003908BA0000306D020330031921
:100300006C02031C84298529F229EC01ED010230DD
:10031000F500F229051505108510851285150512C1
:1003200000306D020F3003196C02031C98299929C3
:100330009C29B501B601A5290F30B0006C08300228
:10034000B5006D090318013EB6003508BA003A0839
:10035000033EB90000306D020F3003196C02031C1C
:10036000B229B329F229EC01ED010330F500F2299D
:1003700005150510851085128511051600306D02D2
:10038000033003196C02031CC629C729CA29B70107
:10039000B801D3290330B0006C083002B7006D09F2
:1003A0000318013EB8003708BA003A08B900003017
:1003B0006D02033003196C02031CDF29E029F229C6
:1003C000EC01ED01F501F2297508003A03192F2916
:1003D000013A03195D29033A03198A29013A0319DD
:1003E000B829F2296F080319F629F729FB29EF012B
:1003F000EC01ED01F501390883160313E7008312C0
:1004000003133A0883160313E600670883120313E5
:10041000A8008316031366080A128A1128240A12F8
:100420008A1108000A128A15C1260A128A1183123B
:100430000313EE01FF3083160313E9008312031345
:10044000EC01ED010130EF00F501F201F1010A12BA
:100450008A11DA250A128A110A128A15ED240A1263
:100460008A110A128A1533250A128A118316031378
:10047000650803193C2A3D2A582AE50103308312F6
:100480000313A0000030A1006E08013EA20000305E
:1004900003180130A3000A128A115F270A128A1179
:1004A000831203132008EE000130EF00EC01ED0190
:1004B000710803195C2A5D2A702A64308312A00037
:1004C0000830A1000A128A11B8270A128A11643072
:1004D00083120313A6000A128A118C230A128A11AE
:1004E000831603136908831203136E060319792A0E
:1004F0007A2ACD2A05110510851405160A128A15C7
:1005000004250A128A110A128A1589240A128A11EC
:1005100001300A128A15C1240A128A11A72A423010
:10052000AC000A128A15F9250A128A11B42A36304B
:10053000AC000A128A15F9250A128A11B42A1B3056
:10054000AC000A128A15F9250A128A11B42A8312FC
:1005500003136E08003A03198F2A013A0319972AE8
:10056000033A03199F2AB42A831203136E088316D1
:100570000313E900CD2A0A128A112A210A128A11CC
:10058000D92A0A128A157E270A128A11D92A0A1232
:100590008A156E250A128A11D92A83126E08003A2A
:1005A0000319BB2A013A0319C12A033A0319C72ABE
:1005B000D92A0A128A114B250A128A118230831213
:1005C0000313E300DD30E200E20BE42AE30BE42A4C
:1005D000362A0A128A1110288312031322082304D0
:1005E0000319F32AF42AFA2A22082304031DF92AFC
:1005F000FA2A012B20080A128A1552240A128A119B
:100600008B2B2208093EA40023080318013E003E5C
:10061000A500240884008317251C83130008A60066
:10062000840A0008A700260827040319182B192B91
:100630004B2B2208093EA40023080318013E003E6C
:10064000A500240884008317251C83130008A60036
:10065000840A0008A7002208023EA8002308031805
:10066000013E003EA900280884008317291C83133B
:100670000008AA00840A0008AB002B08803AAC00EE
:100680002708803A2C02031D472B26082A0203184C
:100690004A2B4B2B8B2B83120313220884008317C6
:1006A000231C83130008A400840A0008A500220864
:1006B000023EA60023080318013E003EA7002608BC
:1006C00084008317271C831300082407A90025082A
:1006D000A8000318A80A801F6E2BA8038312031317
:1006E0002808AA002908840083172A1C83132008DD
:1006F00080002208023EA40023080318013E003EA9
:10070000A500240884008317251C8313013080076B
:10071000840A0318800A0800831203132608A00025
:100720005630A1000A128A11C8260A128A118312B1
:10073000031320082104031D9E2B9F2BB82B03308D
:10074000A0000030A1006E08013EA2000030031896
:100750000130A3000A128A115F270A128A1183123C
:1007600003132008EE000130EF00EC01ED01272C0F
:100770002608A0005230A1000A128A11C8260A12C7
:100780008A118312031320082104031DC82BC92BCF
:10079000CF2BEE010130EF00EC01ED01272C2608F4
:1007A000A0005830A1000A128A11C8260A128A1124
:1007B0008312031320082104031DDF2BE02BE52BFC
:1007C0000130EE000130EF00B52B2608A0005430B8
:1007D000A1000A128A11C8260A128A118312031371
:1007E00020082104031DF52BF62BFB2B0230EE0015
:1007F0000130EF00B52B6E03031DFF2B002C272CBF
:100800002608A0004C30A1000A128A11C8260A123C
:100810008A118312031320082104031D102C112CAC
:10082000142C0130F400272C2608A0004F30A10022
:100830000A128A11C8260A128A1183120313200889
:100840002104031D242C252C272C0130F300080043
:1008500083120313AF000A30A0000030A100280863
:10086000A900AA012908A2002A08A3000A128A11D5
:1008700063260A128A11831203132008AB000A3080
:10088000A0000030A1002808A900AA012908A200A0
:100890002A08A3000A128A115F270A128A118312FA
:1008A00003132008AC000A30A0000030A1002F087C
:1008B000A900AA012908A2002A08A3000A128A1185
:1008C00063260A128A11831203132008AD000A302E
:1008D000A0000030A1002F08A900AA012908A20049
:1008E0002A08A3000A128A115F270A128A118312AA
:1008F00003132008AE002E08013E84000A128A115C
:1009000000270A128A110A128A1550250A128A1122
:10091000831203132D08013E84000A128A11002756
:100920000A128A110A128A1550250A128A11831294
:1009300003132C08013E84000A128A1100270A12B0
:100940008A110A128A1550250A128A11831203137A
:100950002B08013E84000A128A1100270A128A110C
:100960000A128A1550250A128A110A128A1553246E
:100970000A128A110800831203138C1EC02CC12C8A
:100980001E2D981CC42CC52CC82C18121816F0014A
:10099000181DCB2CCC2CCF2C1A08F0011E2D1A08B8
:1009A000FA0020307A020318D62CD72CDE2C0A301D
:1009B0007A060319DC2CDD2CDE2CCD2C0A307A06CD
:1009C000031DE32CE42C102D7008C83E8400831313
:1009D00080017108031DED2CEE2CCD2CFB017B0852
:1009E000C83E84000008FF007B08D03E84007F08DA
:1009F00080007B08C83E84000008031D002D012DE7
:100A0000022D0A2D0130FB0708307B02031C092D43
:100A10000A2DEF2C83160313D7010130F100CD2CE2
:100A2000073070020318152D162DCD2C7008C83E06
:100A300084007A08831380000130F0078B1C212D7D
:100A4000222D272D8B10013083160313E50083120E
:100A50000C1C2B2D2C2D402D0C100B308F00DC305E
:100A60008E000130F20702307202031C382D392D3E
:100A7000402DF2010130EC070318ED0A0030ED07BC
:100A80007908FF0078088A0077088400760E8300D2
:100A9000FE0E7E0E0900A03083120313BF000B3040
:100AA000C0006E08D800D9015808C1005908C2001A
:100AB000031005190314003003180130DA00DB01BC
:100AC0005A08C3005B08C4000310851803140030E3
:100AD00003180130DC00DD015C08C5005D08C600BC
:100AE000031005180314003003180130DE00DF0185
:100AF0005E08C7005F08C8008316031367088312E7
:100B00000313E000E1016008C9006108CA000A128D
:100B10008A15B1250A128A11A03083120313A0008E
:100B20000A128A15D7240A128A1183120313200885
:100B3000A03EBF002930C0000310851A0314003006
:100B400003180130D800D9015808C1005908C20063
:100B50000310051A0314003003180130DA00DB011A
:100B60005A08C3005B08C400031085190314003041
:100B700003180130DC00DD015C08C5005D08C6001B
:100B800083160313660883120313DE00DF015E0879
:100B9000C7005F08C8000A128A15B1250A128A1117
:100BA000A03083120313A1000A128A151B250A1212
:100BB0008A110800413083120313AD00ED30AC0000
:100BC000AC0BE02DAD0BE02DE52D0A128A11FA26B3
:100BD0000A128A1183120313AE012E08D83E840034
:100BE000831380010130AE0708302E02031CF92D5B
:100BF000FA2DED2D0A128A1598260A128A118316EB
:100C00000313D8010A128A1598260A128A1183162C
:100C10000313D9010A128A1598260A128A11033081
:100C20000A128A15B7270A128A1107308312031392
:100C3000AD007C30AC00AC0B1B2EAD0B1B2E0000AE
:100C400003300A128A15B7270A128A11C730831295
:100C50000313AC002B2EAC0B2A2E2E2E03300A12BF
:100C60008A15B7270A128A11C73083120313AC0002
:100C7000392EAC0B382E3C2E02300A128A15B727BB
:100C80000A128A11C73083120313AC00472EAC0B33
:100C9000462E4A2E28300A128A151B270A128A115C
:100CA0000C300A128A151B270A128A110E300A12FA
:100CB0008A151B270A128A1101300A128A151B276E
:100CC0000A128A11080083120313A501A11F692EBD
:100CD0006A2E712EA009A109A00A0319A10A0130E8
:100CE000A500A31F742E752E7C2EA209A309A20AAB
:100CF0000319A30A0130A506A601A70120082104B3
:100D00000319832E842EB92E0130A400902E0130B9
:100D10000310A00DA10DFF3E031D882E0130A40776
:100D2000A11F932E942E872E01300310A60DA70D20
:100D3000FF3E031D952E21082302031DA12E20082E
:100D40002202031CA42EA52EAC2E2008A2022108EC
:100D5000031CA303A302261401300310A10CA00C52
:100D6000FF3E031DAD2E0130A402031DB82EB92E87
:100D7000942E25080319BD2EBE2EC32EA609A70941
:100D8000A60A0319A70A2708A1002608A000080040
:100D9000CD2E0130A0070130A107831203132108D3
:100DA00084000A128A1100270A128A11A200200860
:100DB0008400831300082206031DDF2EE02EE72E99
:100DC000200884000008031DE62EE72EC92E210806
:100DD00084000A128A1100270A128A11A200200830
:100DE00084000008A30022082302A000A101031C24
:100DF000A10308000A128A1579240A128A11080030
:100E000007308A000408840A82070034C034F934A9
:100E1000A434B034993492348234F8348034903429
:100E2000253464342C34253464342C34253464342F
:100E30002C34253464342C34253464342C3400347C
:100E40004D344F34443445345F3446344C344134AB
:100E50005334483449344E344734003425346434F0
:100E60002C34253464342C34253464342C34253427
:100E700064340A3400344D344F34443445345F34E0
:100E80004D3441344E34553441344C3400344D34B7
:100E90004F34443445345F344134553454344F3442
:100EA000003452343134003452343234003441345A
:100EB0000034463400344D3400344E340034831250
:100EC0000313A501A31F652F662F6D2FA209A30988
:100ED000A20A0319A30A0130A500A11F702F712FC8
:100EE000762FA009A109A00A0319A10A200821044C
:100EF00003197B2F7C2FA92F0130A400882F0130EC
:100F00000310A00DA10DFF3E031D802F0130A4078B
:100F1000A11F8B2F8C2F7F2F21082302031D922FBF
:100F200020082202031C952F962F9C2F2008A20236
:100F30002108031CA303A30201300310A10CA00C81
:100F4000FF3E031D9D2F0130A402031DA82FA92FD2
:100F50008C2F25080319AD2FAE2FB32FA209A3099B
:100F6000A20A0319A30A2308A1002208A00008006E
:100F70008B1383120313A401D92F831203132408A4
:100F8000D03E840083130008FF0024082007A2003D
:100F9000220884007F08800024082007A20022087D
:100FA00084000008031DD52FD62FD72FEB2F01303B
:100FB000A4072108FF3EA200FF3003180030A30061
:100FC0002308803A803C031DE72F22082402031CDB
:100FD000EA2FEB2FBD2F8312031321082007A20055
:100FE0002208FF3E840083138001F1018B17080063
:100FF00064008001840A0406031900340406F92FF2
:1018A40008008312031307150000831203130711A2
:1018B4000800831203130714000083120313071094
:1018C4000000080083120313A0000C1E6A2C6B2C6A
:1018D400672C200899000800033083120313A10029
:1018E4009730A000A00B742CA10B742C0800831655
:1018F40003138715071628308312031394008316E5
:1019040003139101803094000930930008000130E2
:101914000A128A151B270A128A150330831203132D
:10192400AD009730AC00AC0B952CAD0B952C08009A
:1019340083120313A71B9F2CA02CA12CAC2C2609CB
:10194400A8002709A900A80A0319A90A2808A600BB
:101954002908A700080083120313A0002008031D10
:10196400B42CB82C831203138714BB2C83120313D7
:1019740087100A128A155B240A128A15080083123A
:101984000313A90029080319C82CC92CCE2C013033
:1019940083160313DB00D12C83160313DB010A1215
:1019A4008A1598260A128A15080083120313200840
:1019B400A200DE2C0130A007200884008313000855
:1019C400031DE52CE62CDC2C22082002A000A1013A
:1019D400A01BA10308008B130B130B128B1083168F
:1019E4000313011331308312031390000B308F0063
:1019F400DC308E000C10831603130C140B178B179A
:101A04000B160800831203130518092D0D2D8312DC
:101A140003138516102D8312031385120519132D34
:101A2400172D8312031385151A2D831203138511A1
:101A34000800282D2108840000080A128A1564244D
:101A44000A128A15013083120313A10783120313A8
:101A54002108840083130008031D312D322D1C2D11
:101A64000800831603130713871719309900831688
:101A740003178711831603131815181283120313FF
:101A840098178316031398168312031318168C12CF
:101A9400831603138C160B178B170800831203137A
:101AA400A2000730A3002208A100230A5B2D031023
:101AB400A10CFF3E031D592D210801390A128A1574
:101AC400AD240A128A15FF3083120313A307A31F40
:101AD4006C2D6D2D552D08000A128A15D4250A1275
:101AE4008A158312031305110510851285116C08DC
:101AF4006D0403197E2D7F2D852D0230850610304F
:101B04008506EC01ED016F080319892D8A2D8D2DB1
:101B1400EF01EC01ED010800831203133C08BE0041
:101B2400A02D3A08AD003B08AE003E30AF003D08A2
:101B3400B0000A128A113D200A128A158312031377
:101B44003E0884000A128A1100270A128A15003AF4
:101B5400031DAD2DAE2D932DBA01BB0108004130FC
:101B640083120313CC003F08CD000030CE00CF0118
:101B7400D001D601D7014D30BA000030BB00400877
:101B8400BC004C30BD000A128A158E250A128A1533
:101B9400831203134F083F07CB004B0884008313C1
:101BA4008001080083120313A401A501FF300A1267
:101BB4008A1550250A128A15013083120313A407CB
:101BC4000318A50A0030A5072508803AFF008030D5
:101BD4007F02031DEF2D08302402031CF22DF32D88
:101BE400D82D0A128A1553240A128A150800831262
:101BF40003132C0884000A128A1100270A128A157A
:101C0400003A0319062E072E1F2E2C0884000A12F0
:101C14008A1100270A128A150A128A154C270A12F9
:101C24008A15013083120313AC07023083120313A5
:101C3400AD00AD0B1B2E0000F92D080010308312EF
:101C44000313A0002730A100831603131114302EB0
:101C54000130A0020030031CA103A1028316031368
:101C6400111C352E362E3E2E831203132008210418
:101C7400031D3D2E3E2E2A2E831220082104031D0F
:101C8400442E452E472E94129416080010308312C9
:101C94000313A0002730A100831603131115582E37
:101CA4000130A0020030031CA103A1028316031318
:101CB400111D5D2E5E2E662E83120313200821044F
:101CC400031D652E662E522E831220082104031D47
:101CD4006C2E6D2E6F2E941294160800831203132B
:101CE400A0001030A1002730A2008C11200893001E
:101CF400812E0130A1020030031CA203A2028C1920
:101D0400842E852E8B2E21082204031D8A2E8B2ED1
:101D14007B2E21082204031D902E912E942E9412C2
:101D24009416972E831603131108080083120313C5
:101D3400A801031083160313E80C83120313280865
:101D4400D83E8400831300080319A92EAA2EAD2EB1
:101D540083160313E81701308312A80708302802FA
:101D6400031CB52EB62E9B2EE830A300A401A40AB2
:101D74004E300A128A15EB260A128A1508008316B9
:101D84000317880189018316031385018312031342
:101D9400850183160313061486140615811315147E
:101DA40095141515831203138601831603138701F3
:101DB40083120313870183160313890187150716FA
:101DC4008312031305110510851085128511051260
:101DD400080083120313A6000A128A1520260A1289
:101DE4008A158312031326080A128A1570260A120A
:101DF4008A1583120313A7010F2F27082307A500B1
:101E040025088400831300080A128A1570260A1212
:101E14008A15013083120313A70724082702031C21
:101E2400142F152FFF2E0A128A1548260A128A1516
:101E3400080083120313AB000A128A156E240A12D7
:101E44008A1583160313D8010A128A1598260A12D2
:101E54008A1583160313D9010A128A1598260A12C1
:101E64008A15831203132B08AA0004300310AA0C4A
:101E7400FF3E031D382F2A080A128A15B7270A12B3
:101E84008A15831203132B080A128A15B7270A121C
:101E94008A15080083120313AB000A128A156E24F4
:101EA4000A128A15013083160313D8000A128A1500
:101EB40098260A128A1583160313D9010A128A1561
:101EC40098260A128A15831203132B08AA000430D9
:101ED4000310AA0CFF3E031D6A2F2A080A128A1552
:101EE400B7270A128A15831203132B080A128A15BC
:101EF400B7270A128A1508000A128A15D4250A126D
:101F04008A1583120313861C882F892F8E2F74033E
:101F1400031D8D2F8E2F992F051105148510051281
:101F24000A128A1504250A128A15F401AC2F061D1B
:101F34009C2F9D2FA22F7303031DA12FA22FAC2F23
:101F440005150510851005120A128A1504250A12B2
:101F54008A15F301831203136F080319B22FB32FE9
:101F6400B62FEF01EC01ED01080083120313A90061
:101F7400A91DBD2FBE2FC32F013083160313DF000D
:101F8400C62F83160313DF0183120313291DCB2FDE
:101F9400CC2FD12F013083160313DE00D42F8316E8
:101FA4000313DE0183120313A91CD92FDA2FDF2FA9
:101FB400013083160313DD00E22F83160313DD01C2
:101FC40083120313291CE72FE82FED2F013083160A
:101FD4000313DC00F02F83160313DC010130DA0055
:101FE4000A128A1598260A128A1583160313DA012F
:0C1FF4000A128A1598260A128A150800A5
:04400E00E423FF3F69
:00000001FF
